:100AC100120ADD7F007E007D7A7C44120A1580FEC9
:0B0ADD00C283C285C2A5D2A5C2A5221B
:040AE8007F19DFFE95
:010AEC0022E7
:080A15008F0B8E0A8D098C087D
:100A1D00E4F50FF50EF50DF50C7FC07EE17DE47C60
:100A2D004BAB0BAA0AA909A808120906600E400CC7
:100A3D00750BC0750AE17509E475084B7F777ECC9F
:100A4D007D2B7C42AB0BAA0AA909A808120800123B
:100A5D0009738F0F8E0E8D0D8C0C7818120A02AB48
:100A6D0007AF0FAE0EAD0DAC0C7810120A02AA072F
:100A7D00AF0FAE0EAD0DAC0C7808120A02AE07AD7D
:100A8D000FC285C283E4F590D283120AE8C2838B2C
:100A9D0090D283120AE8C2838A90D283120AE8C2E6
:100AAD00838E90D283120AE8C2838D90D283120A6C
:030ABD00E8D285F7
:010AC0002213
:10080000EC4D6011E8497017ED33EC3304600DE4F2
:10081000FCFFFEFD22E933E8330470F80209DF1221
:1008200009AA58046009E4CC248150062850090222
:1008300009E92840030209E6C0E0EB4A7044B980A8
:1008400006D0E0FB0209D5EF4E701CBD8008EBFF1F
:10085000EAFEE9FD80EBE98DF0A4FEE5F00208E98F
:10086000E9CDF9EAFEEBFFEF89F0A4FCE5F0CE89D3
:10087000F0A42EFFE435F0CD89F0A42DFEE435F090
:100880008067EF4E7005BD80D780C3EF8BF0A4ACBE
:10089000F0EE8BF0A42CFCE435F0F8EF8AF0A42CF9
:1008A000E5F038FCE433CB8DF0A42CFCE5F03BF80C
:1008B000EE8AF0A42CFCE5F038F8E433CF89F0A4FC
:1008C0002CFCE5F038CF3400CE89F0A42FFFE5F002
:1008D0003EFEE433C98DF0A42EFEE5F039CD8AF05A
:1008E000A42FFFE5F03EFEE43DFD33D0E0FB5007D2
:1008F0000BBB000F0209E9EC2CFCEF33FFEE33FEDB
:06090000ED33FD0209C108
:1009060074F8CC6480CCC86480C8F582046043C3A4
:10091600EB9FF5F0EA9E42F0E99D42F0E89C45F037
:1009260060305018E5825FFFE582F42B5582FB505C
:10093600210ABA001D09B90019088016E5825BFB79
:10094600E582F42F5582FF50090EBE00050DBD004D
:10095600010CC3EB9FF5F0EA9E42F0E99D42F0E8F8
:0D0966009C45F06007CC4820E701B3EC226F
:10097300EDD2E7CD33EC3392D524814006E4FFFE7C
:10098300FDFC22FCE4CFCECDCC24E0501174FF80DB
:10099300EDC3CC13CCCD13CDCE13CECF13CF047078
:0709A300F030D5DE0209F47B
:1009AA00E9D2E7C933E833F892D5EDD2E7CD33EC93
:0709BA0033FC5002B2D5220C
:1009C100EC30E7100FBF000C0EBE00080DBD000497
:1009D1000BEB6014A2D5EB13FCED92E7FD2274FF43
:1009E100FCFDFEFF22E480F8A2D574FF13FC7D809C
:0309F100E480EFB0
:03000000020AD120
:0C0AD100787FE4F6D8FD75810F020AC1A1
:0E09F400C3E49FFFE49EFEE49DFDE49CFC2214
:100A0200E8600FECC313FCED13FDEE13FEEF13FFD2
:030A1200D8F122F6
:00000001FF
